:100000000C9463000C948B000C948B000C944407AC
:100010000C9444070C9444070C948B000C948B00B4
:100020000C948B000C948B000C948B000C94880621
:100030000C948B000C948B000C948B000C948B0014
:100040000C943E060C948B000C940D060C94E70562
:100050000C948B000C948B000C948B000C948B00F4
:100060000C94BD070C948B000000000024002700B6
:100070002A0000000008000201000003040700003D
:1000800000000000000000000000230026002900FE
:1000900000000000250028002B00040404040404D0
:1000A0000404020202020202030303030303010227
:1000B00004081020408001020408102001020408F6
:1000C00010202509930C11241FBECFEFD8E0DEBF0E
:1000D000CDBF11E0A0E0B1E0E4EDFEE102C005908B
:1000E0000D92AE38B107D9F725E0AEE8B1E001C016
:1000F0001D92A232B207E1F710E0C2E6D0E004C0E0
:100100002197FE010E94650DC136D107C9F70E94F3
:10011000240A0C945D0F0C9400008F929F92AF9272
:10012000BF92FF920F931F93CF93DF93F0901B0525
:100130002BE02F1508F44CC020911D0508E512E0B6
:10014000021B110927FD1395000F111F000F111F2E
:1001500020911C05C8E8D0E0C21BD10927FDD3952A
:10016000CC0FDD1FCC0FDD1F4E010D2E000CAA0899
:10017000BB089801012E000C440B550B28193909B6
:100180004A095B09DC010E94E90C24EB30E040E005
:1001900050E00E94BF0C820E931EA41EB51E8C164A
:1001A0009D062CF0E801801691060CF4E4012297DC
:1001B000CC0FDD1F2FB7F8948F2D90E0FC01EE0FD0
:1001C000FF1FE80FF91FE154FB4FD283C1832FBFFC
:1001D000DF91CF911F910F91FF90BF90AF909F90B3
:1001E0008F90089508950895AF92BF92CF92DF92B5
:1001F000EF92FF920F931F93CF93DF936C017B01DC
:100200008B01040F151FEB015E01AE18BF08C0176C
:10021000D10759F06991D601ED91FC910190F081DF
:10022000E02DC6010995892B79F7C501DF91CF91A2
:100230001F910F91FF90EF90DF90CF90BF90AF9004
:100240000895FC01538D448D252F30E0842F90E0DC
:10025000821B930B541710F0CF96089501970895C1
:10026000FC01918D828D981759F0A28DAE0FBF2F92
:10027000B11D5D968C91928D9F5F928F90E0089555
:100280008FEF9FEF0895FC01918D828D981731F0CB
:10029000828DE80FF11D858D90E008958FEF9FEF1F
:1002A0000895FC01918D828D981B892F90E008950F
:1002B00086E593E00E94510121E0892B09F420E0BA
:1002C000822F089580E090E0892B29F00E94580148
:1002D00081110C9400000895FC01A48DA80FB92F82
:1002E000B11DA35EBE4F2C91848D90E001968F735B
:1002F0009927848FA689B7892C93A089B1898C917D
:10030000837080648C93938D848D981306C00288CB
:10031000F389E02D80818F7D80830895EF92FF9295
:100320000F931F93CF93DF93EC0181E0888F9B8D18
:100330008C8D98131AC0E889F989808185FF15C0D2
:100340009FB7F894EE89FF896083E889F9898081F5
:100350008370806480839FBF81E090E0DF91CF91C4
:100360001F910F91FF90EF900895F62E0B8D10E0E6
:100370000F5F1F4F0F731127E02E8C8D8E110CC055
:100380000FB607FCFACFE889F989808185FFF5CFA0
:10039000CE010E946C01F1CFEB8DEC0FFD2FF11D12
:1003A000E35EFE4FF0829FB7F8940B8FEA89FB89DA
:1003B00080818062CFCFCF93DF93EC01888D88233B
:1003C000B9F0AA89BB89E889F9898C9185FD03C0B8
:1003D000808186FD0DC00FB607FCF7CF8C9185FF9D
:1003E000F2CF808185FFEDCFCE010E946C01E9CF75
:1003F000DF91CF91089590E0FC01EE58FF4F2491DA
:10040000FC01E255FF4F3491FC01E656FF4FE491A9
:10041000EE23C9F0222339F0233001F1A8F4213072
:1004200019F1223029F1F0E0EE0FFF1FE057FF4FE6
:10043000A591B4918FB7F894EC91611126C03095D5
:100440003E233C938FBF08952730A9F02830C9F090
:10045000243049F7809180008F7D03C08091800017
:100460008F7780938000DFCF84B58F7784BDDBCF1B
:1004700084B58F7DFBCF8091B0008F778093B000E3
:10048000D2CF8091B0008F7DF9CF3E2BDACFCF93C2
:10049000DF9390E0FC01E255FF4F249186569F4F79
:1004A000FC0184918823D1F090E0880F991FFC0112
:1004B000E859FF4FA591B491FC01E057FF4FC5915A
:1004C000D49161110EC09FB7F8948C91E22FE09502
:1004D0008E238C932881E223E8839FBFDF91CF9105
:1004E00008958FB7F894EC91E22BEC938FBFF6CF81
:1004F0003FB7F8948091460390914703A091480339
:10050000B091490326B5A89B05C02F3F19F001966D
:10051000A11DB11D3FBFBA2FA92F982F8827BC015D
:10052000CD01620F711D811D911D42E0660F771F85
:10053000881F991F4A95D1F708958F929F92AF9285
:10054000BF92CF92DF92EF92FF924B015C010E942B
:1005500078026B017C010E9478026C197D098E097A
:100560009F09683E734081059105A8F321E0821A36
:100570009108A108B10888EEC80E83E0D81EE11CDE
:10058000F11C81149104A104B10429F7FF90EF90AC
:10059000DF90CF90BF90AF909F908F900895209163
:1005A0005403309155032817390771F49091520381
:1005B00080915303981741F0E0915203F0E0E05C22
:1005C000FD4F808190E008958FEF9FEF089508958B
:1005D000EF92FF920F931F93CF93DF93DC015C9612
:1005E000ED90FC905D97E114F10479F481E090E0E6
:1005F00013969C938E93129790E080E0DF91CF91B9
:100600001F910F91FF90EF9008955196ED91FC91FD
:10061000529750968C915097982F90950FB75E9661
:100620002C915E97122F127021FD6095F894208115
:10063000112319F1282B2083E7012197F1F728E0F6
:10064000462F50E0308160FF1AC0382B3083E7011D
:100650002197F1F7BA0175956795215089F7112314
:1006600081F08081892380830FBF5C968D919C915E
:100670000197F1F781E090E0C1CF2923DCCF392346
:10068000E5CF9081892BEFCF209154033091550312
:100690002817390739F48091530390915203891B2D
:1006A00090E0089590E080E0089520915403309107
:1006B00055032817390799F49091520380915303F9
:1006C000981769F0E0915203F0E0E05CFD4F808103
:1006D000909152039F5F9093520390E008958FEFA3
:1006E0009FEF089508952091CF01260F3327331FE0
:1006F00021323105ECF420911802FC0190E080E0F9
:10070000243069F082E00895A091CF012191AC01DD
:1007100041555E4FA40FB52FB11D2C93019686173E
:1007200098F38091CF01680F6093CF0180E0089526
:1007300081E008951092180281E0809317021092D0
:10074000F20161E082E10E94FB0161E083E10E942D
:10075000FB01E9EBF0E080818E7F808380818D7FDB
:10076000808388E48093B80085E48093BC0008957A
:10077000CF93DF9391E09093AE018823B9F0C091BD
:10078000B800D091BA008091BC008A7B8093BC00F5
:1007900060E082E10E94FB0160E083E10E94FB01D6
:1007A0000E949A03D093BA00C093B800DF91CF9112
:1007B0000895E091510380915003E81730F4F0E080
:1007C000E257FE4F808190E008958FEF9FEF0895EC
:1007D00090915103809150032FEF3FEF981748F409
:1007E000E92FF0E0E257FE4F208130E09F5F9093C9
:1007F0005103C90108958091500390915103891BC1
:10080000990B0895CF92DF92EF92FF920F931F936F
:10081000CF93DF937C01CB018A0120911E0222231A
:1008200089F0EB016B01C40ED51ECC15DD0569F016
:100830006991D701ED91FC910190F081E02DC70104
:100840000995F3CF642F0E947303C801DF91CF9104
:100850001F910F91FF90EF90DF90CF900895CF936D
:10086000DF931F92CDB7DEB7698320911E0222234A
:10087000F9F020914E03203258F021E030E0FC01E5
:100880003383228390E080E00F90DF91CF91089531
:1008900080914F03E82FF0E0E15EFD4F9981908356
:1008A0008F5F80934F0380934E0381E090E0ECCF05
:1008B00061E0CE0101960E947303F7CFCF92DF92E1
:1008C000EF92FF920F931F93CF93DF93FC01C481AC
:1008D00021E020931E02C0933F0210924F0310921A
:1008E0004E038385682B83EB94E00E942F04D09104
:1008F0004E03D13208F092C00E9478026B017C0155
:1009000080911802811165C082E08093180281E015
:10091000809317028FEF8093160210921502D093E6
:100920001402AFE1B2E0E4EFF1E080E0D81385C05B
:100930001092F3018091F301CC0FC82BC093F30107
:100940008091F201813009F07CC01092F2010E9486
:1009500078026B017C018091F3018093BB00809150
:100960001A0290911B02A0911C02B0911D02892BCA
:100970008A2B8B2B99F00E94780200911A02109119
:100980001B0220911C0230911D026C197D098E09F9
:100990009F090617170728073907E0F18091BC0067
:1009A00083FDD9CF85EC8093BC000E9478026B0157
:1009B0007C0180911802823009F445C080911602B2
:1009C0008F3F61F180911602803241F180911602D1
:1009D00025C080911A0290911B02A0911C02B09137
:1009E0001D02892B8A2B8B2B09F48ACF0E94780257
:1009F00000911A0210911B0220911C0230911D02DD
:100A00006C197D098E099F090617170728073907F2
:100A100008F076CF809119020E94B80310924F031C
:100A200010924E0310921E02DF91CF911F910F91F1
:100A3000FF90EF90DF90CF9008959D9191938F5FFD
:100A400075CF85EEB0CF80911A0290911B02A091D4
:100A50001C02B0911D02892B8A2B8B2B09F4A9CF84
:100A60000E94780200911A0210911B0220911C0230
:100A700030911D026C197D098E099F090617170711
:100A80002807390708F095CFC5CF90E080E008959A
:100A90000F931F93CF938C01C62F0E945E046C2F7F
:100AA0006460C8010E945E046C2F6B7FC8010E94C5
:100AB0005E0483EC90E00197F1F7CF911F910F91C5
:100AC00008950F931F93CF93DF938C01D62FC42FDC
:100AD000607F642B0E94480580E1D89FB0011124FB
:100AE0006C2BC801DF91CF911F910F910C94480599
:100AF000CF93DF93CDB7DEB728970FB6F894DEBF5C
:100B00000FBECDBF98E0E6E0F1E0DE011196019066
:100B10000D929A95E1F79091F904981708F48FEFE8
:100B200090E0880F991F21E030E02C0F3D1F820FCD
:100B3000931FFC016081606840E080EF94E028969C
:100B40000FB6F894DEBF0FBECDBFDF91CF910C94EE
:100B5000610541E00E94610581E090E0089585ED26
:100B60008093BC0080911A0290911B02A0911C02FC
:100B7000B0911D020796A11DB11D23E0B695A79562
:100B8000979587952A95D1F72091BC0024FD03C045
:100B900010921802089540911A0250911B02609120
:100BA0001C0270911D02452B462B472B69F30097C1
:100BB000A105B10541F025E32A95F1F70000019761
:100BC000A109B109E1CF809119020C94B8031F92D9
:100BD0000F920FB60F9211242F933F934F935F9371
:100BE0006F937F938F939F93AF93BF93EF93FF93F5
:100BF00086E593E00E946C01FF91EF91BF91AF9168
:100C00009F918F917F916F915F914F913F912F9124
:100C10000F900FBE0F901F9018951F920F920FB656
:100C20000F9211242F938F939F93EF93FF93E09153
:100C30006603F09167038081E0916C03F0916D038E
:100C400082FD1AC0908180916F038F5F20917003A5
:100C5000821741F0E0916F03F0E0EA5AFC4F958F64
:100C600080936F03FF91EF919F918F912F910F9040
:100C70000FBE0F901F9018958081F4CF1F920F9296
:100C80000FB60F9211242F933F938F939F93AF939F
:100C9000BF938091420390914303A0914403B0918C
:100CA00045033091410323E0230F2D3758F501967A
:100CB000A11DB11D209341038093420390934303F0
:100CC000A0934403B093450380914603909147035A
:100CD000A0914803B09149030196A11DB11D8093D5
:100CE000460390934703A0934803B0934903BF91F1
:100CF000AF919F918F913F912F910F900FBE0F90C9
:100D00001F90189526E8230F0296A11DB11DD2CF82
:100D10001F920F920FB60F9211242F933F934F9370
:100D20005F936F937F938F939F93AF93BF93CF9373
:100D3000DF93EF93FF9380914003C091E304D0E0F1
:100D400087FF24C010928500109284008091400398
:100D50008F5F8093400380914003082E000C990B15
:100D60008C179D0724F4809140038C30C4F180914E
:100D7000840090918500049680349C4908F47AC0E0
:100D80008091840090918500049676C08091400304
:100D9000082E000C990B8C179D07C4F6E0914003B8
:100DA0008E2FEE0F990BFC01EE0FFF1FE80FF91FBE
:100DB000E154FB4F808186FFC9CFE09140038E2F25
:100DC000EE0F990BFC01EE0FFF1FE80FF91FE15426
:100DD000FB4F808160E08F730E94FB01B7CF2091B1
:100DE000840030918500E09140038E2FEE0F990B27
:100DF000FC01EE0FFF1FE80FF91FE154FB4F81814B
:100E00009281820F931F9093890080938800E091D4
:100E100040038E2FEE0F990BFC01EE0FFF1FE80F22
:100E2000F91FE154FB4F808186FF11C0E091400320
:100E30008E2FEE0F990BFC01EE0FFF1FE80FF91F2D
:100E4000E154FB4F808161E08F730E94FB01FF91B1
:100E5000EF91DF91CF91BF91AF919F918F917F9152
:100E60006F915F914F913F912F910F900FBE0F9017
:100E70001F90189580E49CE99093890080938800E6
:100E80008FEF80934003E3CF1F920F920FB60F9224
:100E900011242F933F934F935F936F937F938F937F
:100EA0009F93AF93BF93CF93DF93EF93FF93E09123
:100EB0005403F0915503309749F0A685B785858591
:100EC000968D91FF16C09C918923B1F4FF91EF910B
:100ED000DF91CF91BF91AF919F918F917F916F9152
:100EE0005F914F913F912F910F900FBE0F901F90E8
:100EF00018959C91892351F7A389B4899C91858980
:100F0000809589238C93868997890197F1F7608D65
:100F1000718DC685D785558598E080E0DB011197F6
:100F2000F1F7282F30E035952795822F488145230A
:100F300009F08068915091F7968D91FD8095909180
:100F400053039F5F20915203921799F0A09153038E
:100F5000B0E0A05CBD4F8C9390935303828D938D32
:100F60000197F1F7A389B4898C919589892B8C938A
:100F7000ADCF868D8160868FF1CF1F920F920FB615
:100F80000F9211242F933F934F935F936F937F930F
:100F90008F939F93AF93BF93EF93FF938091B9008B
:100FA000887F803609F44AC0F0F5883209F4A7C07A
:100FB00018F5803109F49BC0B8F4882309F4F9C00E
:100FC000883009F494C0FF91EF91BF91AF919F9148
:100FD0008F917F916F915F914F913F912F910F90E2
:100FE0000FBE0F901F901895883109F488C0803289
:100FF00051F78093160214C0803409F49DC040F468
:101000008033B9F38833F9F68093160285ECB0C0CB
:10101000803509F485C0883509F496C0883499F67E
:101020000E94AF05D0CF883909F48CC038F58837D5
:1010300029F050F4883611F0803729F683E0809348
:1010400018021092F10157C0883809F47BC080392A
:1010500019F0803809F0B7CF8091F101803208F0A3
:1010600071C0E091F10181E08E0F8093F1018091D8
:10107000BB00F0E0EF52FE4F80833DC0803B39F073
:10108000E0F4803A09F479C0883A09F09CCF84E012
:10109000809318021092D0011092CF01E0914C037E
:1010A000F0914D0309958091CF0181110FC081E02E
:1010B0008093CF011092AF0109C0803C09F4A6CF04
:1010C000883C09F4A3CF883B09F07DCFE091D001A3
:1010D00081E08E0F8093D001F0E0E155FE4F8081DA
:1010E0008093BB009091D0018091CF0129C0809165
:1010F000F3018093BB0085EC8093BC0064CF90919A
:10110000150280911402981758F5E091150281E0BC
:101110008E0F80931502F0E0EC50FE4F8081E9CFF6
:10112000E091150281E08E0F809315028091BB0043
:10113000F0E0EC50FE4F80839091150280911402F4
:101140009817C8F285E8D8CFE091150281E08E0F9C
:10115000809315028091BB00F0E0EC50FE4F80833D
:101160008091170281115CCF81E08093F20184EAC3
:101170008093BC001092180226CF85EC8093BC00AF
:10118000109218028091F101803230F4E091F10167
:10119000F0E0EF52FE4F10826091F10170E0E091BB
:1011A0004A03F0914B0381ED91E009951092F10112
:1011B0000ACF1092160234CFEF92FF920F931F9333
:1011C000CF93DF93EC017B01198218821B821A8274
:1011D0001D821C82FB0101900020E9F731978F01ED
:1011E000061B170BB8016F5F7F4F90E080E00E94F5
:1011F000900E0097B9F0998388831B830A832C8112
:101200003D81232B11F4FC0110821D830C83B70157
:1012100088819981DF91CF911F910F91FF90EF907D
:101220000C94560F88819981009711F00E94070E47
:10123000198218821D821C821B821A82DF91CF9133
:101240001F910F91FF90EF90089510925903109203
:10125000580388EE93E0A0E0B0E080935A039093A7
:101260005B03A0935C03B0935D0322E131E0309314
:1012700057032093560325EC30E03093630320930B
:10128000620324EC30E0309365032093640320EC88
:1012900030E0309367032093660321EC30E0309315
:1012A00069032093680322EC30E030936B032093B2
:1012B0006A0326EC30E030936D0320936C031092A8
:1012C0006F031092700310927103109272031092C8
:1012D000B6041092B5048093B7049093B804A09319
:1012E000B904B093BA0484E291E09093B40480937B
:1012F000B3048091E3048C3008F0A2C091E0980F11
:101300009093E30480931B0590E0FC01EE0FFF1F18
:10131000E80FF91FE154FB4F88EB9BE09283818338
:101320001092FF041092FE0488EE93E0A0E0B0E07B
:101330008093000590930105A0930205B0930305E7
:1013400082E491E09093FD048093FC0410921305D5
:10135000109212051092150510921405109217059F
:1013600010921605109219051092180560911A0531
:101370006E7F6D7F60931A056695617081E06827C6
:1013800088E00E94FB0161E088E00E944702E6EBF2
:10139000F0E0E491E0930C05E2EAF0E0E491F0E0A3
:1013A000EE0FFF1FE057FF4F8591949190930E052C
:1013B00080930D0560E083E00E94470280911A054A
:1013C00081FD04C061E083E00E94FB0183E0809323
:1013D0000805E1EBF0E0E491E0930905EDE9F0E0C8
:1013E000E491F0E0EE0FFF1FEA57FF4F85919491D3
:1013F00090930B0580930A051092F3041092F20467
:1014000086E391E09093F1048093F00487E2809367
:10141000F40480E18093F80482E08093F904109250
:10142000FA0488E08093FB0460E571E08AEE94E0C2
:101430000E94DC0860E671E084EE94E00C94DC0825
:101440008FEF80931B056CCF789484B5826084BD48
:1014500084B5816084BD85B5826085BD85B58160B8
:1014600085BD80916E00816080936E001092810036
:1014700080918100826080938100809181008160F1
:1014800080938100809180008160809380008091B2
:10149000B10084608093B1008091B000816080933E
:1014A000B00080917A00846080937A0080917A0005
:1014B000826080937A0080917A00816080937A00C4
:1014C00080917A00806880937A001092C1008091A8
:1014D0001B058C3008F051C061E087E00E94470294
:1014E00080911B05282F30E0F901EE0FFF1FE20F5E
:1014F000F31FE154FB4F9081907C97609083109292
:101500001C0510921D052CE0622F0E94590D829F30
:10151000B001112430E020E0AB01420F531FFA016B
:10152000EE0FFF1FE40FF51FE154FB4F908196FD76
:1015300016C02F5F3F4F2C30310571F781110FC05E
:101540001092800082E080938100109285001092BA
:101550008400B19A80916F00826080936F00E09167
:101560001B058E2F90E0FC01EE0FFF1FE80FF91F07
:10157000E154FB4F80818064808361E08AE00E94B7
:10158000470261E08BE00E94470261E089E00E942F
:101590004702E0916603F091670382E08083E09167
:1015A0006203F09163031082E0916403F09165039C
:1015B00080E1808310926E03E0916A03F0916B03E7
:1015C00086E08083E0916803F09169038081806107
:1015D0008083E0916803F091690380818860808353
:1015E000E0916803F0916903808180688083E091D5
:1015F0006803F091690380818F7D8083109251038D
:101600001092500310924F0310924E030E949A03BF
:1016100082EF90E090934D0380934C0383EF90E032
:1016200090934B0380934A031092F5048091F90440
:10163000823018F098E09093F5049091FA04992381
:1016400039F0813029F48091F50484608093F504A9
:1016500062E370E080E090E00E949D026091FB04F4
:1016600080EF94E00E945E0468EE73E080E090E01A
:101670000E949D0260E380EF94E00E944805CBE465
:10168000D6E4CE010197F1F760E380EF94E00E9489
:1016900048052197F1F760E380EF94E00E94480548
:1016A00083E592E00197F1F760E280EF94E00E9419
:1016B00048056091F504606240E080EF94E00E948C
:1016C000610584E08093F60440E06CE080EF94E0F4
:1016D0000E94610540E061E080EF94E00E946105B6
:1016E000CBE3DFE1CE010197F1F782E08093F704CD
:1016F00040E066E080EF94E00E94610540E062E037
:1017000080EF94E00E9461052197F1F71092170590
:1017100010921605109215051092140510921305DB
:10172000109212058DE991E09093190580931805A8
:1017300090910805963108F047C02DEB30E03093CA
:101740001305209312052BE931E030931505209302
:1017500014052CE231E030931705209316052091F3
:10176000680084E0983048F031E09E3008F430E0C2
:1017700081E001C0880F3A95EAF7822B80936800D8
:101780002DE630E0983050F02BE630E09E3030F01F
:101790002CE630E0963110F030E020E03093100578
:1017A00020930F05292F30E0983008F0AFC081E07A
:1017B00001C0880F9A95EAF780931105809118056A
:1017C000909119050197F1F78091160590911705F1
:1017D000892B49F1E0915403F091550384E0EC3FEB
:1017E000F80709F1309739F0A389B4899C9185896C
:1017F000809589238C9380911A058E7F80931A059A
:1018000010925303109252038CEF94E0909355037F
:1018100080935403E0910F05F09110058081909121
:101820001105892B808388E08093FB0460E080EFC2
:1018300094E00E945E0480E00E9478054BE050E056
:1018400063E771E080EF94E00E94F40081E00E9481
:10185000780548E050E06FE771E080EF94E00E9487
:10186000F40060ED77E080E090E00E949D0240E0AF
:1018700061E080EF94E00E9461058BE39FE10197B6
:10188000F1F761E08AE00E94FB0161E08BE00E94D9
:10189000FB0161E089E00E94FB0184EB90E00E9483
:1018A0008D0060ED77E080E090E00E949D0260E0B6
:1018B0008AE00E94FB0160E08BE00E94FB0160E097
:1018C00089E00E94FB0190E080E00E948D0068EEBC
:1018D00073E080E090E00E949D02C0E0D0E060ED07
:1018E00077E080E090E00E949D0245E050E068E8EB
:1018F00071E086E593E00E94F400209781F30E9456
:101900005801882361F30E940000E9CF9E3040F423
:101910002850310981E001C0880F2A95EAF74CCFA1
:101920002E503109F7CF8091E4049091E50400979F
:1019300011F00E94070E8091EA049091EB04009749
:1019400011F00E94070E82E491E09093FD048093D1
:10195000FC0480915403909155038C5F944071F482
:10196000E0910F05F091100590818091110580950F
:101970008923808310925503109254030895052EF5
:1019800097FB1EF400940E94D60C57FD07D00E94CE
:10199000280D07FC03D04EF40C94D60C50954095BE
:1019A000309521953F4F4F4F5F4F0895909580950B
:1019B000709561957F4F8F4F9F4F08950E944A0DFC
:1019C000A59F900DB49F900DA49F800D911D112493
:1019D0000895B7FF0C94DE0C0E94DE0C821B930B63
:1019E00008952F923F924F925F926F927F928F92C3
:1019F0009F92AF92BF92CF92DF92EF92FF920F939E
:101A00001F93CF93DF93CDB7DEB7CA1BDB0B0FB6A7
:101A1000F894DEBF0FBECDBF09942A883988488864
:101A20005F846E847D848C849B84AA84B984C884FA
:101A3000DF80EE80FD800C811B81AA81B981CE0FF1
:101A4000D11D0FB6F894DEBF0FBECDBFED010895D6
:101A5000A1E21A2EAA1BBB1BFD010DC0AA1FBB1FB2
:101A6000EE1FFF1FA217B307E407F50720F0A21B24
:101A7000B30BE40BF50B661F771F881F991F1A9491
:101A800069F760957095809590959B01AC01BD01BB
:101A9000CF010895A29FB001B39FC001A39F700D15
:101AA000811D1124911DB29F700D811D1124911D66
:101AB0000895991B79E004C0991F961708F0961BAA
:101AC000881F7A95C9F780950895EE0FFF1F05903E
:101AD000F491E02D09940F931F93CF93DF938230FD
:101AE000910510F482E090E0E0912005F09121054D
:101AF00030E020E0B0E0A0E0309799F42115310506
:101B000009F44AC0281B390B24303105D8F58A81E5
:101B10009B816115710589F1FB0193838283FE012D
:101B200011C0408151810281138148175907E0F0AB
:101B30004817590799F4109761F012960C93129771
:101B400013961C933296CF01DF91CF911F910F9185
:101B500008950093200510932105F4CF2115310538
:101B600051F04217530738F0A901DB019A01BD017A
:101B7000DF01F801C1CFEF01F9CF909321058093E8
:101B80002005CDCFFE01E20FF31F819391932250E8
:101B9000310939832883D7CF20911E0530911F0545
:101BA000232B41F4209102013091030130931F0552
:101BB00020931E052091000130910101211531056E
:101BC00041F42DB73EB74091040150910501241B0B
:101BD000350BE0911E05F0911F05E217F307A0F405
:101BE0002E1B3F0B2817390778F0AC014E5F5F4F73
:101BF0002417350748F04E0F5F1F50931F05409381
:101C00001E05819391939FCFF0E0E0E09CCFCF93AE
:101C1000DF930097E9F0FC01329713821282A091C2
:101C20002005B0912105ED0130E020E01097A1F4EE
:101C300020813181820F931F20911E0530911F0555
:101C40002817390709F061C0F0931F05E0931E05BE
:101C5000DF91CF910895EA01CE17DF07E8F54A81B9
:101C60005B819E0141155105B1F7E901FB83EA83D0
:101C700049915991C40FD51FEC17FD0761F480817C
:101C800091810296840F951FE9019983888382814F
:101C900093819B838A83F0E0E0E012968D919C9182
:101CA00013970097B9F52D913C911197CD010296AC
:101CB000820F931F20911E0530911F0528173907A9
:101CC00039F6309751F51092210510922005B09306
:101CD0001F05A0931E05BCCFD383C28340815181D1
:101CE000840F951FC817D90761F44E5F5F4F888135
:101CF0009981480F591F518340838A819B81938327
:101D000082832115310509F0B0CFF0932105E093CE
:101D100020059ECFFD01DC01C0CF13821282D7CFF8
:101D2000B0E0A0E0E6E9FEE00C94F30C8C01009733
:101D300051F4CB010E946B0D8C01C801CDB7DEB709
:101D4000E0E10C940F0DFC01E60FF71F9C012250FF
:101D50003109E217F30708F49DC0D901CD91DC9158
:101D60001197C617D70798F0C530D10530F3CE01CB
:101D700004978617970708F3C61BD70B2297C193C2
:101D8000D1936D937C93CF010E94070ED6CF5B0158
:101D9000AC1ABD0A4C018C0E9D1EA0912005B0917D
:101DA0002105512C412CF12CE12C109731F580911B
:101DB0001E0590911F058815990509F05CC046160F
:101DC000570608F058C080910001909101010097DA
:101DD00041F48DB79EB74091040150910501841BD9
:101DE000950BE817F90708F055C0F0931F05E0932D
:101DF0001E05F90171836083A0CF8D919C9111978D
:101E000012966C90129713967C901397A815B905AB
:101E100059F56C0142E0C40ED11CCA14DB0420F158
:101E2000AC014A195B09DA011296159780F06282BB
:101E3000738251834083D9016D937C93E114F10443
:101E400071F0D7011396FC93EE93129776CF2296FA
:101E50008C0F9D1FF90191838083F301EFCFF093E5
:101E60002105E093200569CF4816590608F42C0196
:101E70007D01D3019ACFCB010E946B0D7C010097AD
:101E800049F0AE01B8010E944D0FC8010E94070E33
:101E9000870153CF10E000E050CFFB01DC0102C00E
:101EA00001900D9241505040D8F70895FB01DC019C
:101EB00001900D920020E1F7089510E0C2E6D0E015
:101EC00004C0FE010E94650D2196C336D107C9F7F3
:041ED000F894FFCFB4
:101ED40000002205800000004000140054000000AF
:101EE40000008E01F4002101DB01510130014301A6
:101EF400000000002F0402044505E702FB03E80389
:101F0400D90300000000A905F40045057203000090
:101F14000000E802F4004505E70244035503CF023C
:101F24002B323334303930363139383331353000AF
:101F340048656C6C6F2066726F6D2053494D383064
:101F4400304C00476173206C65616B6167650064A8
:0E1F540065746563746F7200743A3132310047
:00000001FF
